{
  "_format": "hh-sol-artifact-1",
  "contractName": "ImageStorage",
  "sourceName": "contracts/ImageStorage.sol",
  "abi": [
    {
      "anonymous": false,
      "inputs": [
        {
          "indexed": false,
          "internalType": "string",
          "name": "ipfsHash",
          "type": "string"
        },
        {
          "indexed": false,
          "internalType": "uint256",
          "name": "timestamp",
          "type": "uint256"
        },
        {
          "indexed": false,
          "internalType": "address",
          "name": "uploader",
          "type": "address"
        }
      ],
      "name": "ImageStored",
      "type": "event"
    },
    {
      "inputs": [
        {
          "internalType": "string",
          "name": "_ipfsHash",
          "type": "string"
        }
      ],
      "name": "getImage",
      "outputs": [
        {
          "components": [
            {
              "internalType": "string",
              "name": "ipfsHash",
              "type": "string"
            },
            {
              "internalType": "uint256",
              "name": "timestamp",
              "type": "uint256"
            },
            {
              "internalType": "address",
              "name": "uploader",
              "type": "address"
            }
          ],
          "internalType": "struct ImageStorage.ImageData",
          "name": "",
          "type": "tuple"
        }
      ],
      "stateMutability": "view",
      "type": "function"
    },
    {
      "inputs": [
        {
          "internalType": "string",
          "name": "",
          "type": "string"
        }
      ],
      "name": "images",
      "outputs": [
        {
          "internalType": "string",
          "name": "ipfsHash",
          "type": "string"
        },
        {
          "internalType": "uint256",
          "name": "timestamp",
          "type": "uint256"
        },
        {
          "internalType": "address",
          "name": "uploader",
          "type": "address"
        }
      ],
      "stateMutability": "view",
      "type": "function"
    },
    {
      "inputs": [
        {
          "internalType": "string",
          "name": "_ipfsHash",
          "type": "string"
        }
      ],
      "name": "storeImage",
      "outputs": [],
      "stateMutability": "nonpayable",
      "type": "function"
    }
  ],
  "bytecode": "0x608060405234801561001057600080fd5b506109e5806100206000396000f3fe608060405234801561001057600080fd5b50600436106100415760003560e01c8063b75840b714610046578063e12ee76514610062578063e802bf7d14610094575b600080fd5b610060600480360381019061005b919061064c565b6100c4565b005b61007c6004803603810190610077919061064c565b610206565b60405161008b93929190610777565b60405180910390f35b6100ae60048036038101906100a9919061064c565b6102ee565b6040516100bb919061086d565b60405180910390f35b6000815111610108576040517f08c379a00000000000000000000000000000000000000000000000000000000081526004016100ff906108db565b60405180910390fd5b60405180606001604052808281526020014281526020013373ffffffffffffffffffffffffffffffffffffffff168152506000826040516101499190610937565b90815260200160405180910390206000820151816000019080519060200190610173929190610418565b506020820151816001015560408201518160020160006101000a81548173ffffffffffffffffffffffffffffffffffffffff021916908373ffffffffffffffffffffffffffffffffffffffff1602179055509050507fa73777dbd21a116b82d1e21397588c892e0068cb8ecbd0c02222f4cf816b857f8142336040516101fb93929190610777565b60405180910390a150565b60008180516020810182018051848252602083016020850120818352809550505050505060009150905080600001805461023f9061097d565b80601f016020809104026020016040519081016040528092919081815260200182805461026b9061097d565b80156102b85780601f1061028d576101008083540402835291602001916102b8565b820191906000526020600020905b81548152906001019060200180831161029b57829003601f168201915b5050505050908060010154908060020160009054906101000a900473ffffffffffffffffffffffffffffffffffffffff16905083565b6102f661049e565b6000826040516103069190610937565b908152602001604051809103902060405180606001604052908160008201805461032f9061097d565b80601f016020809104026020016040519081016040528092919081815260200182805461035b9061097d565b80156103a85780601f1061037d576101008083540402835291602001916103a8565b820191906000526020600020905b81548152906001019060200180831161038b57829003601f168201915b50505050508152602001600182015481526020016002820160009054906101000a900473ffffffffffffffffffffffffffffffffffffffff1673ffffffffffffffffffffffffffffffffffffffff1673ffffffffffffffffffffffffffffffffffffffff16815250509050919050565b8280546104249061097d565b90600052602060002090601f016020900481019282610446576000855561048d565b82601f1061045f57805160ff191683800117855561048d565b8280016001018555821561048d579182015b8281111561048c578251825591602001919060010190610471565b5b50905061049a91906104d5565b5090565b60405180606001604052806060815260200160008152602001600073ffffffffffffffffffffffffffffffffffffffff1681525090565b5b808211156104ee5760008160009055506001016104d6565b5090565b6000604051905090565b600080fd5b600080fd5b600080fd5b600080fd5b6000601f19601f8301169050919050565b7f4e487b7100000000000000000000000000000000000000000000000000000000600052604160045260246000fd5b61055982610510565b810181811067ffffffffffffffff8211171561057857610577610521565b5b80604052505050565b600061058b6104f2565b90506105978282610550565b919050565b600067ffffffffffffffff8211156105b7576105b6610521565b5b6105c082610510565b9050602081019050919050565b82818337600083830152505050565b60006105ef6105ea8461059c565b610581565b90508281526020810184848401111561060b5761060a61050b565b5b6106168482856105cd565b509392505050565b600082601f83011261063357610632610506565b5b81356106438482602086016105dc565b91505092915050565b600060208284031215610662576106616104fc565b5b600082013567ffffffffffffffff8111156106805761067f610501565b5b61068c8482850161061e565b91505092915050565b600081519050919050565b600082825260208201905092915050565b60005b838110156106cf5780820151818401526020810190506106b4565b838111156106de576000848401525b50505050565b60006106ef82610695565b6106f981856106a0565b93506107098185602086016106b1565b61071281610510565b840191505092915050565b6000819050919050565b6107308161071d565b82525050565b600073ffffffffffffffffffffffffffffffffffffffff82169050919050565b600061076182610736565b9050919050565b61077181610756565b82525050565b6000606082019050818103600083015261079181866106e4565b90506107a06020830185610727565b6107ad6040830184610768565b949350505050565b600082825260208201905092915050565b60006107d182610695565b6107db81856107b5565b93506107eb8185602086016106b1565b6107f481610510565b840191505092915050565b6108088161071d565b82525050565b61081781610756565b82525050565b6000606083016000830151848203600086015261083a82826107c6565b915050602083015161084f60208601826107ff565b506040830151610862604086018261080e565b508091505092915050565b60006020820190508181036000830152610887818461081d565b905092915050565b7f496e76616c696420495046532048617368000000000000000000000000000000600082015250565b60006108c56011836106a0565b91506108d08261088f565b602082019050919050565b600060208201905081810360008301526108f4816108b8565b9050919050565b600081905092915050565b600061091182610695565b61091b81856108fb565b935061092b8185602086016106b1565b80840191505092915050565b60006109438284610906565b915081905092915050565b7f4e487b7100000000000000000000000000000000000000000000000000000000600052602260045260246000fd5b6000600282049050600182168061099557607f821691505b602082108114156109a9576109a861094e565b5b5091905056fea2646970667358221220888f10e8db82c72968af96975588b90b2b8a8c37bb805d28f3b794211882870564736f6c63430008090033",
  "linkReferences": {},
  "deployedLinkReferences": {}
}